{
  "address": "0x5FbDB2315678afecb367f032d93F642f64180aa3",
  "abi": [
    {
      "inputs": [],
      "stateMutability": "nonpayable",
      "type": "constructor"
    },
    {
      "inputs": [],
      "name": "WavePortal__IsOnCooldown",
      "type": "error"
    },
    {
      "inputs": [],
      "name": "WavePortal__MsgToYourself",
      "type": "error"
    },
    {
      "inputs": [],
      "name": "WavePortal__WaveDoesntExist",
      "type": "error"
    },
    {
      "inputs": [],
      "name": "WavePortal__WaveWasntSentByYou",
      "type": "error"
    },
    {
      "anonymous": false,
      "inputs": [
        {
          "indexed": true,
          "internalType": "address",
          "name": "from",
          "type": "address"
        },
        {
          "indexed": false,
          "internalType": "uint256",
          "name": "timestamp",
          "type": "uint256"
        },
        {
          "indexed": false,
          "internalType": "string",
          "name": "message",
          "type": "string"
        }
      ],
      "name": "NewWave",
      "type": "event"
    },
    {
      "anonymous": false,
      "inputs": [
        {
          "indexed": true,
          "internalType": "address",
          "name": "from",
          "type": "address"
        },
        {
          "indexed": false,
          "internalType": "uint256",
          "name": "waveId",
          "type": "uint256"
        },
        {
          "indexed": false,
          "internalType": "bool",
          "name": "like",
          "type": "bool"
        }
      ],
      "name": "ToggleLike",
      "type": "event"
    },
    {
      "anonymous": false,
      "inputs": [
        {
          "indexed": true,
          "internalType": "address",
          "name": "from",
          "type": "address"
        },
        {
          "indexed": false,
          "internalType": "uint256",
          "name": "waveId",
          "type": "uint256"
        }
      ],
      "name": "WaveRemoved",
      "type": "event"
    },
    {
      "inputs": [
        {
          "internalType": "uint256",
          "name": "waveId",
          "type": "uint256"
        }
      ],
      "name": "deleteWave",
      "outputs": [],
      "stateMutability": "nonpayable",
      "type": "function"
    },
    {
      "inputs": [],
      "name": "getTotalWavesCount",
      "outputs": [
        {
          "internalType": "uint256",
          "name": "",
          "type": "uint256"
        }
      ],
      "stateMutability": "view",
      "type": "function"
    },
    {
      "inputs": [
        {
          "internalType": "uint256",
          "name": "waveId",
          "type": "uint256"
        }
      ],
      "name": "getWaveById",
      "outputs": [
        {
          "components": [
            {
              "internalType": "uint256",
              "name": "id",
              "type": "uint256"
            },
            {
              "internalType": "address",
              "name": "waver",
              "type": "address"
            },
            {
              "internalType": "uint256",
              "name": "timestamp",
              "type": "uint256"
            },
            {
              "internalType": "string",
              "name": "message",
              "type": "string"
            },
            {
              "internalType": "uint256",
              "name": "likesAmount",
              "type": "uint256"
            }
          ],
          "internalType": "struct WavePortal.Wave",
          "name": "",
          "type": "tuple"
        }
      ],
      "stateMutability": "view",
      "type": "function"
    },
    {
      "inputs": [],
      "name": "getWaves",
      "outputs": [
        {
          "components": [
            {
              "internalType": "uint256",
              "name": "id",
              "type": "uint256"
            },
            {
              "internalType": "address",
              "name": "waver",
              "type": "address"
            },
            {
              "internalType": "uint256",
              "name": "timestamp",
              "type": "uint256"
            },
            {
              "internalType": "string",
              "name": "message",
              "type": "string"
            },
            {
              "internalType": "uint256",
              "name": "likesAmount",
              "type": "uint256"
            }
          ],
          "internalType": "struct WavePortal.Wave[]",
          "name": "",
          "type": "tuple[]"
        }
      ],
      "stateMutability": "view",
      "type": "function"
    },
    {
      "inputs": [
        {
          "internalType": "address",
          "name": "",
          "type": "address"
        }
      ],
      "name": "lastWavedAt",
      "outputs": [
        {
          "internalType": "uint256",
          "name": "",
          "type": "uint256"
        }
      ],
      "stateMutability": "view",
      "type": "function"
    },
    {
      "inputs": [],
      "name": "owner",
      "outputs": [
        {
          "internalType": "address",
          "name": "",
          "type": "address"
        }
      ],
      "stateMutability": "view",
      "type": "function"
    },
    {
      "inputs": [
        {
          "internalType": "uint256",
          "name": "waveId",
          "type": "uint256"
        }
      ],
      "name": "toggleLike",
      "outputs": [],
      "stateMutability": "nonpayable",
      "type": "function"
    },
    {
      "inputs": [
        {
          "internalType": "string",
          "name": "_message",
          "type": "string"
        }
      ],
      "name": "wave",
      "outputs": [],
      "stateMutability": "nonpayable",
      "type": "function"
    }
  ],
  "transactionHash": "0x2e21611d28166bc891d247adb68a48d64db6e24ad8a4c1787e2482ad6e6dc236",
  "args": [],
  "numDeployments": 1,
  "solcInputHash": "40a5f9155325f54169a08ab66092df35",
  "bytecode": "0x60806040523480156200001157600080fd5b5033600260006101000a81548173ffffffffffffffffffffffffffffffffffffffff021916908373ffffffffffffffffffffffffffffffffffffffff1602179055506200009e6040518060400160405280601581526020017f436f6e7374727563746f7220696e697469617465640000000000000000000000815250620000a460201b62000dbb1760201c565b6200022e565b6200014481604051602401620000bb91906200020a565b6040516020818303038152906040527f41304fac000000000000000000000000000000000000000000000000000000007bffffffffffffffffffffffffffffffffffffffffffffffffffffffff19166020820180517bffffffffffffffffffffffffffffffffffffffffffffffffffffffff83818316178352505050506200014760201b60201c565b50565b60008151905060006a636f6e736f6c652e6c6f679050602083016000808483855afa5050505050565b600081519050919050565b600082825260208201905092915050565b60005b83811015620001ac5780820151818401526020810190506200018f565b60008484015250505050565b6000601f19601f8301169050919050565b6000620001d68262000170565b620001e281856200017b565b9350620001f48185602086016200018c565b620001ff81620001b8565b840191505092915050565b60006020820190508181036000830152620002268184620001c9565b905092915050565b611ac2806200023e6000396000f3fe608060405234801561001057600080fd5b50600436106100885760003560e01c80639d9e7ef51161005b5780639d9e7ef5146100ff578063a42a46631461011d578063a9d42f7e1461014d578063f924ebc81461016b57610088565b8063328e2ac71461008d578063449d46c0146100a957806354398d18146100c55780638da5cb5b146100e1575b600080fd5b6100a760048036038101906100a29190610f69565b61019b565b005b6100c360048036038101906100be91906110dc565b6104eb565b005b6100df60048036038101906100da9190610f69565b6107a9565b005b6100e9610a6d565b6040516100f69190611166565b60405180910390f35b610107610a93565b6040516101149190611190565b60405180910390f35b610137600480360381019061013291906111d7565b610a9d565b6040516101449190611190565b60405180910390f35b610155610ab5565b60405161016291906113d9565b60405180910390f35b61018560048036038101906101809190610f69565b610c1a565b6040516101929190611471565b60405180910390f35b6000600382815481106101b1576101b0611493565b5b906000526020600020906005020160020154036101fa576040517fb50faa8700000000000000000000000000000000000000000000000000000000815260040160405180910390fd5b3373ffffffffffffffffffffffffffffffffffffffff166003828154811061022557610224611493565b5b906000526020600020906005020160010160009054906101000a900473ffffffffffffffffffffffffffffffffffffffff1673ffffffffffffffffffffffffffffffffffffffff16141580156102c95750600260009054906101000a900473ffffffffffffffffffffffffffffffffffffffff1673ffffffffffffffffffffffffffffffffffffffff163373ffffffffffffffffffffffffffffffffffffffff1614155b15610300576040517f26d12a2500000000000000000000000000000000000000000000000000000000815260040160405180910390fd5b60008190505b600160038054905061031891906114f1565b81101561041f57600360018261032e9190611525565b8154811061033f5761033e611493565b5b90600052602060002090600502016003828154811061036157610360611493565b5b9060005260206000209060050201600082015481600001556001820160009054906101000a900473ffffffffffffffffffffffffffffffffffffffff168160010160006101000a81548173ffffffffffffffffffffffffffffffffffffffff021916908373ffffffffffffffffffffffffffffffffffffffff16021790555060028201548160020155600382018160030190816103fe919061177b565b5060048201548160040155905050808061041790611863565b915050610306565b506003805480610432576104316118ab565b5b60019003818190600052602060002090600502016000808201600090556001820160006101000a81549073ffffffffffffffffffffffffffffffffffffffff0219169055600282016000905560038201600061048e9190610e7d565b6004820160009055505090553373ffffffffffffffffffffffffffffffffffffffff167f67a56ffcc2da7151f957a281f12bd45134f27316a82bdf13eaacff05e805aded826040516104e09190611190565b60405180910390a250565b6000600260009054906101000a900473ffffffffffffffffffffffffffffffffffffffff1673ffffffffffffffffffffffffffffffffffffffff163373ffffffffffffffffffffffffffffffffffffffff1603610574576040517f832ffd4800000000000000000000000000000000000000000000000000000000815260040160405180910390fd5b42610e10600460003373ffffffffffffffffffffffffffffffffffffffff1673ffffffffffffffffffffffffffffffffffffffff168152602001908152602001600020546105c29190611525565b11156105fa576040517f700412af00000000000000000000000000000000000000000000000000000000815260040160405180910390fd5b600180600082825461060c9190611525565b9250508190555042600460003373ffffffffffffffffffffffffffffffffffffffff1673ffffffffffffffffffffffffffffffffffffffff1681526020019081526020016000208190555060036040518060a0016040528060005481526020013373ffffffffffffffffffffffffffffffffffffffff1681526020014281526020018481526020018381525090806001815401808255809150506001900390600052602060002090600502016000909190919091506000820151816000015560208201518160010160006101000a81548173ffffffffffffffffffffffffffffffffffffffff021916908373ffffffffffffffffffffffffffffffffffffffff16021790555060408201518160020155606082015181600301908161073191906118da565b5060808201518160040155505060008081548092919061075090611863565b91905055503373ffffffffffffffffffffffffffffffffffffffff167f5f7e16dc676677766a70e9c5628aa6c54ddb8b6e5188e2ae1e1f17f1ffbea716428460405161079d9291906119f6565b60405180910390a25050565b6000600382815481106107bf576107be611493565b5b90600052602060002090600502016002015403610808576040517fb50faa8700000000000000000000000000000000000000000000000000000000815260040160405180910390fd5b6005600082815260200190815260200160002060003373ffffffffffffffffffffffffffffffffffffffff1673ffffffffffffffffffffffffffffffffffffffff16815260200190815260200160002060009054906101000a900460ff16156109165760006005600083815260200190815260200160002060003373ffffffffffffffffffffffffffffffffffffffff1673ffffffffffffffffffffffffffffffffffffffff16815260200190815260200160002060006101000a81548160ff0219169083151502179055506001600382815481106108ea576108e9611493565b5b9060005260206000209060050201600401600082825461090a91906114f1565b925050819055506109bd565b60016005600083815260200190815260200160002060003373ffffffffffffffffffffffffffffffffffffffff1673ffffffffffffffffffffffffffffffffffffffff16815260200190815260200160002060006101000a81548160ff02191690831515021790555060016003828154811061099557610994611493565b5b906000526020600020906005020160040160008282546109b59190611525565b925050819055505b3373ffffffffffffffffffffffffffffffffffffffff167fa91049ac33c3b356237b34830694b9bfb195305471c57b80a76a3c428de53fb4826005600085815260200190815260200160002060003373ffffffffffffffffffffffffffffffffffffffff1673ffffffffffffffffffffffffffffffffffffffff16815260200190815260200160002060009054906101000a900460ff16604051610a62929190611a41565b60405180910390a250565b600260009054906101000a900473ffffffffffffffffffffffffffffffffffffffff1681565b6000600154905090565b60046020528060005260406000206000915090505481565b60606003805480602002602001604051908101604052809291908181526020016000905b82821015610c1157838290600052602060002090600502016040518060a0016040529081600082015481526020016001820160009054906101000a900473ffffffffffffffffffffffffffffffffffffffff1673ffffffffffffffffffffffffffffffffffffffff1673ffffffffffffffffffffffffffffffffffffffff16815260200160028201548152602001600382018054610b7690611588565b80601f0160208091040260200160405190810160405280929190818152602001828054610ba290611588565b8015610bef5780601f10610bc457610100808354040283529160200191610bef565b820191906000526020600020905b815481529060010190602001808311610bd257829003601f168201915b5050505050815260200160048201548152505081526020019060010190610ad9565b50505050905090565b610c22610ebd565b600060038381548110610c3857610c37611493565b5b90600052602060002090600502016002015403610c81576040517fb50faa8700000000000000000000000000000000000000000000000000000000815260040160405180910390fd5b60038281548110610c9557610c94611493565b5b90600052602060002090600502016040518060a0016040529081600082015481526020016001820160009054906101000a900473ffffffffffffffffffffffffffffffffffffffff1673ffffffffffffffffffffffffffffffffffffffff1673ffffffffffffffffffffffffffffffffffffffff16815260200160028201548152602001600382018054610d2890611588565b80601f0160208091040260200160405190810160405280929190818152602001828054610d5490611588565b8015610da15780601f10610d7657610100808354040283529160200191610da1565b820191906000526020600020905b815481529060010190602001808311610d8457829003601f168201915b505050505081526020016004820154815250509050919050565b610e5181604051602401610dcf9190611a6a565b6040516020818303038152906040527f41304fac000000000000000000000000000000000000000000000000000000007bffffffffffffffffffffffffffffffffffffffffffffffffffffffff19166020820180517bffffffffffffffffffffffffffffffffffffffffffffffffffffffff8381831617835250505050610e54565b50565b60008151905060006a636f6e736f6c652e6c6f679050602083016000808483855afa5050505050565b508054610e8990611588565b6000825580601f10610e9b5750610eba565b601f016020900490600052602060002090810190610eb99190610f02565b5b50565b6040518060a0016040528060008152602001600073ffffffffffffffffffffffffffffffffffffffff1681526020016000815260200160608152602001600081525090565b5b80821115610f1b576000816000905550600101610f03565b5090565b6000604051905090565b600080fd5b600080fd5b6000819050919050565b610f4681610f33565b8114610f5157600080fd5b50565b600081359050610f6381610f3d565b92915050565b600060208284031215610f7f57610f7e610f29565b5b6000610f8d84828501610f54565b91505092915050565b600080fd5b600080fd5b6000601f19601f8301169050919050565b7f4e487b7100000000000000000000000000000000000000000000000000000000600052604160045260246000fd5b610fe982610fa0565b810181811067ffffffffffffffff8211171561100857611007610fb1565b5b80604052505050565b600061101b610f1f565b90506110278282610fe0565b919050565b600067ffffffffffffffff82111561104757611046610fb1565b5b61105082610fa0565b9050602081019050919050565b82818337600083830152505050565b600061107f61107a8461102c565b611011565b90508281526020810184848401111561109b5761109a610f9b565b5b6110a684828561105d565b509392505050565b600082601f8301126110c3576110c2610f96565b5b81356110d384826020860161106c565b91505092915050565b6000602082840312156110f2576110f1610f29565b5b600082013567ffffffffffffffff8111156111105761110f610f2e565b5b61111c848285016110ae565b91505092915050565b600073ffffffffffffffffffffffffffffffffffffffff82169050919050565b600061115082611125565b9050919050565b61116081611145565b82525050565b600060208201905061117b6000830184611157565b92915050565b61118a81610f33565b82525050565b60006020820190506111a56000830184611181565b92915050565b6111b481611145565b81146111bf57600080fd5b50565b6000813590506111d1816111ab565b92915050565b6000602082840312156111ed576111ec610f29565b5b60006111fb848285016111c2565b91505092915050565b600081519050919050565b600082825260208201905092915050565b6000819050602082019050919050565b61123981610f33565b82525050565b61124881611145565b82525050565b600081519050919050565b600082825260208201905092915050565b60005b8381101561128857808201518184015260208101905061126d565b60008484015250505050565b600061129f8261124e565b6112a98185611259565b93506112b981856020860161126a565b6112c281610fa0565b840191505092915050565b600060a0830160008301516112e56000860182611230565b5060208301516112f8602086018261123f565b50604083015161130b6040860182611230565b50606083015184820360608601526113238282611294565b91505060808301516113386080860182611230565b508091505092915050565b600061134f83836112cd565b905092915050565b6000602082019050919050565b600061136f82611204565b611379818561120f565b93508360208202850161138b85611220565b8060005b858110156113c757848403895281516113a88582611343565b94506113b383611357565b925060208a0199505060018101905061138f565b50829750879550505050505092915050565b600060208201905081810360008301526113f38184611364565b905092915050565b600060a0830160008301516114136000860182611230565b506020830151611426602086018261123f565b5060408301516114396040860182611230565b50606083015184820360608601526114518282611294565b91505060808301516114666080860182611230565b508091505092915050565b6000602082019050818103600083015261148b81846113fb565b905092915050565b7f4e487b7100000000000000000000000000000000000000000000000000000000600052603260045260246000fd5b7f4e487b7100000000000000000000000000000000000000000000000000000000600052601160045260246000fd5b60006114fc82610f33565b915061150783610f33565b925082820390508181111561151f5761151e6114c2565b5b92915050565b600061153082610f33565b915061153b83610f33565b9250828201905080821115611553576115526114c2565b5b92915050565b7f4e487b7100000000000000000000000000000000000000000000000000000000600052602260045260246000fd5b600060028204905060018216806115a057607f821691505b6020821081036115b3576115b2611559565b5b50919050565b6000815490506115c881611588565b9050919050565b60008190508160005260206000209050919050565b60006020601f8301049050919050565b600082821b905092915050565b6000600883026116317fffffffffffffffffffffffffffffffffffffffffffffffffffffffffffffffff826115f4565b61163b86836115f4565b95508019841693508086168417925050509392505050565b6000819050919050565b600061167861167361166e84610f33565b611653565b610f33565b9050919050565b6000819050919050565b6116928361165d565b6116a661169e8261167f565b848454611601565b825550505050565b600090565b6116bb6116ae565b6116c6818484611689565b505050565b5b818110156116ea576116df6000826116b3565b6001810190506116cc565b5050565b601f82111561172f57611700816115cf565b611709846115e4565b81016020851015611718578190505b61172c611724856115e4565b8301826116cb565b50505b505050565b600082821c905092915050565b600061175260001984600802611734565b1980831691505092915050565b600061176b8383611741565b9150826002028217905092915050565b818103611789575050611861565b611792826115b9565b67ffffffffffffffff8111156117ab576117aa610fb1565b5b6117b58254611588565b6117c08282856116ee565b6000601f8311600181146117ef57600084156117dd578287015490505b6117e7858261175f565b86555061185a565b601f1984166117fd876115cf565b9650611808866115cf565b60005b828110156118305784890154825560018201915060018501945060208101905061180b565b8683101561184d5784890154611849601f891682611741565b8355505b6001600288020188555050505b5050505050505b565b600061186e82610f33565b91507fffffffffffffffffffffffffffffffffffffffffffffffffffffffffffffffff82036118a05761189f6114c2565b5b600182019050919050565b7f4e487b7100000000000000000000000000000000000000000000000000000000600052603160045260246000fd5b6118e38261124e565b67ffffffffffffffff8111156118fc576118fb610fb1565b5b6119068254611588565b6119118282856116ee565b600060209050601f8311600181146119445760008415611932578287015190505b61193c858261175f565b8655506119a4565b601f198416611952866115cf565b60005b8281101561197a57848901518255600182019150602085019450602081019050611955565b868310156119975784890151611993601f891682611741565b8355505b6001600288020188555050505b505050505050565b600082825260208201905092915050565b60006119c88261124e565b6119d281856119ac565b93506119e281856020860161126a565b6119eb81610fa0565b840191505092915050565b6000604082019050611a0b6000830185611181565b8181036020830152611a1d81846119bd565b90509392505050565b60008115159050919050565b611a3b81611a26565b82525050565b6000604082019050611a566000830185611181565b611a636020830184611a32565b9392505050565b60006020820190508181036000830152611a8481846119bd565b90509291505056fea26469706673582212207ca1a5b161277b65766143d037daa15c659b6bb7f35c302cf8e78fd0f023d9ff64736f6c63430008110033",
  "devdoc": {
    "kind": "dev",
    "methods": {},
    "version": 1
  },
  "userdoc": {
    "kind": "user",
    "methods": {},
    "version": 1
  },
  "storageLayout": {
    "storage": [
      {
        "astId": 14,
        "contract": "contracts/WavePortal.sol:WavePortal",
        "label": "idCounter",
        "offset": 0,
        "slot": "0",
        "type": "t_uint256"
      },
      {
        "astId": 16,
        "contract": "contracts/WavePortal.sol:WavePortal",
        "label": "totalWaves",
        "offset": 0,
        "slot": "1",
        "type": "t_uint256"
      },
      {
        "astId": 18,
        "contract": "contracts/WavePortal.sol:WavePortal",
        "label": "owner",
        "offset": 0,
        "slot": "2",
        "type": "t_address"
      },
      {
        "astId": 55,
        "contract": "contracts/WavePortal.sol:WavePortal",
        "label": "waves",
        "offset": 0,
        "slot": "3",
        "type": "t_array(t_struct(Wave)51_storage)dyn_storage"
      },
      {
        "astId": 59,
        "contract": "contracts/WavePortal.sol:WavePortal",
        "label": "lastWavedAt",
        "offset": 0,
        "slot": "4",
        "type": "t_mapping(t_address,t_uint256)"
      },
      {
        "astId": 65,
        "contract": "contracts/WavePortal.sol:WavePortal",
        "label": "likes",
        "offset": 0,
        "slot": "5",
        "type": "t_mapping(t_uint256,t_mapping(t_address,t_bool))"
      }
    ],
    "types": {
      "t_address": {
        "encoding": "inplace",
        "label": "address",
        "numberOfBytes": "20"
      },
      "t_array(t_struct(Wave)51_storage)dyn_storage": {
        "base": "t_struct(Wave)51_storage",
        "encoding": "dynamic_array",
        "label": "struct WavePortal.Wave[]",
        "numberOfBytes": "32"
      },
      "t_bool": {
        "encoding": "inplace",
        "label": "bool",
        "numberOfBytes": "1"
      },
      "t_mapping(t_address,t_bool)": {
        "encoding": "mapping",
        "key": "t_address",
        "label": "mapping(address => bool)",
        "numberOfBytes": "32",
        "value": "t_bool"
      },
      "t_mapping(t_address,t_uint256)": {
        "encoding": "mapping",
        "key": "t_address",
        "label": "mapping(address => uint256)",
        "numberOfBytes": "32",
        "value": "t_uint256"
      },
      "t_mapping(t_uint256,t_mapping(t_address,t_bool))": {
        "encoding": "mapping",
        "key": "t_uint256",
        "label": "mapping(uint256 => mapping(address => bool))",
        "numberOfBytes": "32",
        "value": "t_mapping(t_address,t_bool)"
      },
      "t_string_storage": {
        "encoding": "bytes",
        "label": "string",
        "numberOfBytes": "32"
      },
      "t_struct(Wave)51_storage": {
        "encoding": "inplace",
        "label": "struct WavePortal.Wave",
        "members": [
          {
            "astId": 42,
            "contract": "contracts/WavePortal.sol:WavePortal",
            "label": "id",
            "offset": 0,
            "slot": "0",
            "type": "t_uint256"
          },
          {
            "astId": 44,
            "contract": "contracts/WavePortal.sol:WavePortal",
            "label": "waver",
            "offset": 0,
            "slot": "1",
            "type": "t_address"
          },
          {
            "astId": 46,
            "contract": "contracts/WavePortal.sol:WavePortal",
            "label": "timestamp",
            "offset": 0,
            "slot": "2",
            "type": "t_uint256"
          },
          {
            "astId": 48,
            "contract": "contracts/WavePortal.sol:WavePortal",
            "label": "message",
            "offset": 0,
            "slot": "3",
            "type": "t_string_storage"
          },
          {
            "astId": 50,
            "contract": "contracts/WavePortal.sol:WavePortal",
            "label": "likesAmount",
            "offset": 0,
            "slot": "4",
            "type": "t_uint256"
          }
        ],
        "numberOfBytes": "160"
      },
      "t_uint256": {
        "encoding": "inplace",
        "label": "uint256",
        "numberOfBytes": "32"
      }
    }
  }
}